:020000040800F2
:1000000090B5022001030008873C00080535000870
:10001000853C0008751C0008C5420008000000006F
:10002000000000000000000000000000113D00087A
:10003000771C000800000000893C0008133D000800
:100040001B0300081B0300081B0300081B03000818
:100050001B0300081B0300081B0300081B03000808
:100060001B0300081B0300081B0300081B030008F8
:100070001B0300081B0300081B0300081B030008E8
:100080001B0300081B0300081B0300081B030008D8
:100090001B0300081B0300081B030008791C000851
:1000A0001B0300081B0300081B0300081B030008B8
:1000B0001B0300081B0300081B0300081B030008A8
:1000C0001B0300081B0300081B0300081B03000898
:1000D0001B0300081B0300081B0300081B03000888
:1000E0001B0300081B0300081B0300081B03000878
:1000F0001B0300081B0300081B0300081B03000868
:100100001B0300081B0300081B0300081B03000857
:100110001B0300081B0300081B0300081B03000847
:100120001B0300081B0300081B0300081B03000837
:100130001B0300081B0300081B0300081B03000827
:100140001B0300081B0300081B0300081B03000817
:100150001B0300081B0300081B0300081B03000807
:100160001B0300081B0300081B0300081B030008F7
:100170001B0300081B0300081B030008000000000D
:100180001B0300081B0300081B0300081B030008D7
:100190001B0300081B0300081B0300081B030008C7
:1001A0001B0300081B0300081B0300081B030008B7
:1001B0001B0300081B0300081B0300081B030008A7
:1001C0001B0300081B030008000000001B030008BD
:1001D0001B0300081B0300081B0300081B03000887
:1001E0001B0300081B0300081B0300081B03000877
:1001F0001B0300081B03000800F002F800F070F871
:100200000AA090E8000C82448344AAF10107DA4571
:1002100001D100F065F8AFF2090EBAE80F0013F053
:10022000010F18BFFB1A43F00103184734A9080057
:1002300054A908000A444FF0000C10F8013B13F0D9
:10024000070408BF10F8014B1D1108BF10F8015B2F
:10025000641E05D010F8016B641E01F8016BF9D122
:1002600013F0080F1EBF10F8014BAD1C0C1B09D179
:100270006D1E58BF01F801CBFAD505E014F8016BEB
:1002800001F8016B6D1EF9D59142D6D3704700007D
:100290000023002400250026103A28BF78C1FBD88F
:1002A000520728BF30C148BF0B607047662908F06D
:1002B000A680642900F02681002070471FB508F051
:1002C00099F89DE8030000F073FB00F079FE04004C
:1002D0000020002108F078F8E0601FBD10B510BDC7
:1002E00000F090FF1146FFF7E9FF07F061FA00F018
:1002F000AEFF03B4FFF7F2FF03BC01F013F80000F8
:100300000948804709480047FEE7FEE7FEE7FEE7A9
:10031000FEE7FEE7FEE7FEE7FEE7FEE704480549E5
:10032000054A064B70470000B93D0008F901000876
:1003300090A5022090B5022090AD022090AD022041
:1003400070B5064600F018FB056806F10B0020F0BA
:100350000704B4429CBF002070BD2B466A68BAB146
:100360001068A04210D304F1080188423CBF5068D5
:10037000586007D35168101941601168091B01606A
:1003800058601460101D70BD13465268002AE7D1F2
:100390002146284600F0F8FA0028DED170BD70B57D
:1003A0000446051F00F0E8FA0068002C14BF4468FA
:1003B00070BD002C18BFAC423CBF20466468F8D327
:1003C00001680A18AA4218BF456003D12A68054689
:1003D0001144016028684119A1421CBF6C6070BDC6
:1003E0006168696021680844286070BD53EA020CA6
:1003F00000F069802DE9F04B4FF00006002B1FBF85
:10040000B3FA83F503FA05F424FA05F65E4012BF49
:100410001643B2FA82F502FA05F4C5F120051EBFB3
:1004200022FA05FC44EA0C04203556EA044C4FEA53
:10043000144418BF641C4FF000084FF000099042AC
:1004400071EB030C39D3002919BFB1FA81F701FA16
:1004500007F6B0FA80F700FA07F6C7F120071EBFCB
:1004600020FA07FC46EA0C062037B6FBF4FCA7EBA3
:100470000507103F07F01F0BCBF120060CFA0BFB12
:100480002CFA06F644BFB3460026202FA4BF5E46D2
:100490004FF0000B5BEA060C08BF4FF0010B19EBA5
:1004A0000B09ABFB027C48EB0608C01B06FB02CC29
:1004B0000BFB03CC71EB0C01C1E70B460246414636
:1004C0004846BDE8F08B13B54FF000004FF0000137
:1004D000AFF30080BDE81C40704700000FB41CB5AE
:1004E000074B06AA7B4469460090059800F00FFD73
:1004F0000020694600F01EFD1CBC5DF814FB0000E6
:100500004D0A00002DE9F0410646002410687529C7
:10051000314616A510D0AFF30080002802DA404221
:1005200013A507E031688A0701D512A502E0490743
:1005300004D511A5012401E0AFF3008000210A22B7
:1005400006F1240709E0B0FBF2FCB0FBF2F302FB7A
:100550001C00303078541846491C0028F3D123463B
:100560002A463046BDE8F04100F063BA00000000C2
:100570002D0000002B000000200000002DE9F05F9E
:10058000894604464FF0000ADFF824B1FB44C0F866
:1005900020A02046E168884700287DD0252806D085
:1005A000D4E901219047206A401C2062F1E7002530
:1005B0005F462046E16888472028064607DB312E43
:1005C00005D2B81910F8200C08B10543F1E7A807C7
:1005D00001D525F00405C4F81CA00027C4F818A014
:1005E0002A2E09D0304604F04AFA38B304EB8708C3
:1005F000303EC8F8186019E059F8041B204604EB97
:1006000087029161E1688847012F064618D1E069A9
:10061000002820DA25F020051DE0D8F8180000EBAE
:10062000800006EB40003038C8F818002046E1682A
:100630008847064604F023FA0028EED1012F0AD09D
:100640002E2E08D12046E16888477F1C0646022FDF
:1006500045F02005C4DBA069002803DA404245F0DC
:100660000105A061E80701D025F01005A6B1A6F1AB
:100670004100192802D8203645F400654A46314623
:10068000204625604D46FFF711FE60B1012807D0D6
:10069000ED1D25F0070000E007E000F1080978E70C
:1006A00005F1040975E730467AE7206ABDE8F09F56
:1006B000F8A4080030B505460B462A4613F8014B4E
:1006C00012F8010B08B1A042F8D01CB1002802D0EA
:1006D0006D1CF1E7284630BD40EA010310B59B07C9
:1006E0000FD1042A0DD310C808C9121F9C42F8D09C
:1006F00020BA19BA884201D9012010BD4FF0FF304D
:1007000010BD1AB1D30703D0521C07E0002010BD62
:1007100010F8013B11F8014B1B1B07D110F8013BEE
:1007200011F8014B1B1B01D1921EF1D1184610BDCF
:1007300010B5431C02E010F8011B71B18107FAD11A
:100740004FF0013202C88C1A8C4314EAC211F9D05E
:10075000C01A0A0603D0C01E10BDC01A10BD0A047C
:1007600001D0801E10BD0902FCD0401E10BD032A1E
:1007700040F2308010F0030C00F0158011F8013BBE
:10078000BCF1020F624498BF11F801CB00F8013BA5
:1007900038BF11F8013BA2F1040298BF00F801CB69
:1007A00038BF00F8013B11F0030300F06780083AFE
:1007B000C0F0088051F8043B083A51F804CBA0E897
:1007C0000810F5E7121D5CBF51F8043B40F8043BEC
:1007D000AFF30080D20724BF11F8013B11F801CB21
:1007E00048BF11F8012B24BF00F8013B00F801CBF2
:1007F00048BF00F8012B7047431A28BF9A427FF682
:10080000B6AF032A1044114440F2268010F0030FC3
:100810001EBF11F8013D521E00F8013D10F0030FFC
:100820007FF4F6AF11F0030300F09C83083AC0F0A8
:100830000B8051F8043D083A51F804CD40F8043DCE
:1008400040F804CDFFF7F3BF121D5CBF51F8043D23
:1008500040F8043DAFF30080D20724BF11F8013DFA
:1008600011F801CD48BF11F8012C24BF00F8013D5B
:1008700000F801CD48BF00F8012C704710B5203AB0
:10088000C0F00B80B1E81850203AA0E81850B1E849
:100890001850A0E81850BFF4F5AF5FEA027C24BFFF
:1008A000B1E81850A0E8185044BF18C918C0BDE8F6
:1008B00010405FEA827C24BF51F8043B40F8043BBF
:1008C00008BF7047D20728BF31F8023B48BF11F874
:1008D000012B28BF20F8023B48BF00F8012B7047CE
:1008E0004FF000020429C0F0128010F0030C00F059
:1008F0001B80CCF1040CBCF1020F18BF00F8012BD7
:10090000A8BF20F8022BA1EB0C0100F00DB85FEAA4
:10091000C17C24BF00F8012B00F8012B48BF00F870
:10092000012B70474FF0000200B5134694469646DF
:10093000203922BFA0E80C50A0E80C50B1F12001F2
:10094000BFF4F7AF090728BFA0E80C5048BF0CC0A0
:100950005DF804EB890028BF40F8042B08BF7047FE
:1009600048BF20F8022B11F0804F18BF00F8012B70
:1009700070477047704770470048704734A50220A1
:10098000704770477047704738B504460A460020E4
:100990006946AFF30080002808BF38BD02460099C1
:1009A000204600F015FB012038BD012000F022BCDC
:1009B000F8B5AFF30080054600200C46102000BFBC
:1009C0000646A819A0420DD9324669460020AFF369
:1009D0000080070008BF00F00DFC0098A04218BF7F
:1009E0000546C419FFF7C8FF05600746F01D20F053
:1009F00007004619284600F00AF8B44208BFF8BDBF
:100A0000A21B31463868BDE8F84000F0E1BA002189
:100A10000160C0E9011070471020704710B500F068
:100A2000D3FA006810BD10B5044600F0CDFA04609A
:100A300010BD2DE9F0470D4699469246044600F157
:100A400024080168880604D5E06921F010012160BE
:100A500000E00120A84201DD471B00E00027A1695A
:100A60007A1902EB0900081AA0612078C00602D4A6
:100A70002046AFF30080002608E0D4E901211AF8EF
:100A800006009047206A401C761C20624E45F4DB2D
:100A90002078C0060AD52046AFF3008006E0D4E9EE
:100AA000012130209047206A401C2062381EA7F1A7
:100AB0000107F4DC07E0D4E9012118F805009047AC
:100AC000206A401C2062281EA5F10105F3DC2046A7
:100AD000AFF300802078000602D50220BDE8F08741
:100AE0000120FBE770472DE9FF4F0C461E464FF0F3
:100AF000FF378BB0D2E90001DDF860800A908A46AA
:100B0000C1F30A5505B93D46002108464FF00000E3
:100B1000BAF1000F00F4400005DA00EB80004FF45A
:100B2000400101EA50004FEA9059B9F1010F00DD90
:100B3000B9460A9850EA4A000ED044F61050A5F281
:100B4000FF3545432F14B8F1000F1ED07542291E02
:100B50001EDDC9F100021CE0B8F1010F4FF00000EA
:100B600001D0302103E0F24305E02154401CB042A3
:100B7000FBDB30460022002121540B99C1F808808C
:100B8000C1E900200FB0BDE8F08FBD1B6D1CDEE792
:100B90004A4600DA694206A800F0BAFA06AB93E8C2
:100BA000070003AB83E8070050460A9900F0E0FB1A
:100BB0008DE80700A0F500501F3800900398002D25
:100BC0000ADD42F21F014A460844002303A90390AC
:100BD000684600F049FE09E0A0F500504A461F387B
:100BE000002303A90390684600F053FE8DE8070038
:100BF0000004000C03D04FF0FF30410800E0104625
:100C0000B8F1000F03D00022009215461EE0751EB9
:100C100005D400F0F7F9303262556D1EF9D5B346B0
:100C20000122084302D000227F1C04E020783028F3
:100C300001D100227F1E002A099784D01DE0112DCA
:100C400007DA00F0DFF9303262556D1C50EA01021C
:100C5000F5D1084302D00098C8B10EE00021681E0B
:100C600005E0235C625C63542254401E491C8142AF
:100C7000F7DBAB46A81B401E0990002004F80B00D0
:100C80000B98099AC0F80880C0E9002B7AE7112672
:100C90004FF0000857E72DE9F04F88460446D21D73
:100CA00022F0070191B0D1E90001CDE90A0103F07A
:100CB0000AFB02460B98C00F01D02D2007E02068E8
:100CC000810701D52B2002E0202101EAC000032A80
:100CD000099001D0072A05DB03464146204600F073
:100CE000D7F90BE12078800601D5E06900E0062005
:100CF000B8F1650F814606D0B8F1660F18D0B8F18B
:100D0000670F70D131E00020B9F1110F009001DBC5
:100D1000112301E009F101030AAA01A90CA8FFF7B8
:100D2000E2FEDDE90C70002609F10105834647E08B
:100D300001204B4600904FF000470AAA01A90CA8D9
:100D4000FFF7D1FEDDE90DB00C995D46002610B924
:100D500009F101000D18B9EB050003D4C0F1FF360D
:100D600009F10105A5EB09002BE0B9F1010F01DA4A
:100D70004FF001090020B9F1110F0090484601DD44
:100D8000112300E003460AAA01A90CA8FFF7ABFE55
:100D9000DDE90C704D4600268346207800070AD412
:100DA000AB4500DA5D4601A8012D04DD411911F8BB
:100DB000011C302907D04F4502DA17F1040F04DA7D
:100DC000012082460FE06D1EEEE7002F02DCED1BD6
:100DD0003E4403E0781CA84200DD7D1CB81B00F1F6
:100DE000010A4FF000472078000703D4AA4501DB31
:100DF0004FF0FF3A0021B7F1004F0DF143088DF895
:100E0000431024D002202B23002F01DA7F422D2310
:100E10000A21021EA0F1010000DC5FB197FBF1FC8A
:100E200097FBF1F201FB1C7C17460CF1300C08F823
:100E300001CDEEE7A8F1010003702188090501D575
:100E4000452100E06521A0F1010800F8011C099886
:100E50000FA9A1EB0807FF1D00B10120411901EB0B
:100E6000EA70A1693844081A401EA0612078C006C3
:100E700002D42046AFF30080099828B1D4E90121BB
:100E80009047206A401C20622078C00622D5204668
:100E9000AFF300801EE0002E04DBB34502DD01A8A5
:100EA000805D00E03020D4E901219047206A401C99
:100EB0002062761CAAF101005FEA000A0AD100F064
:100EC0007FF8C0680168405CD4E901219047206A3E
:100ED000401C2062281EA5F10105DCDC07E0D4E9F6
:100EE000012118F8010B9047206A401C2062381E2F
:100EF000A7F10107F3DC2046AFF30080032011B017
:100F000041E6000001694A1C02610878704700B59B
:100F10008FB0CDE901310021059105497944CDE932
:100F2000031011466846FFF729FB0FB000BD000013
:100F3000E5FFFFFF0A6802F8010B0A607047431AD9
:100F400028BF9A427FF69AAC104410F0030F114468
:100F50001EBF11F8013D521E00F8013D10F0030FB5
:100F60007FF4F6AF103AC0F00A8010B531E918509E
:100F7000103A20E91850BFF4F9AFBDE8104053070C
:100F800024BF31E9081020E9081044BF51F8043D9E
:100F900040F8043D12F0030F08BF7047D20728BF86
:100FA00031F8023D48BF11F8012C28BF20F8023D5E
:100FB00048BF00F8012C7047004870472CA502205C
:100FC000004870474CA50220004870472CA502201D
:100FD000034640688C46002818BF88423CBF034641
:100FE0004068F8D318681844884207D00CF1030011
:100FF00020F00700001D411A521A0146081D0A6020
:10100000FFF7CDB930B5B0F10A024FEA900E71F199
:1010100000034EEA817EB0EB0E0061EB91014FEAD6
:10102000101E4EEA017E10EB0E0041EB11114FEA4B
:10103000102E4EEA016E10EB0E0041EB11214FEA2B
:10104000104E4EEA014E10EB0E0041EB11414018DC
:1010500041F100014FEAD00040EA41704FEAD1016E
:1010600010EB80054FEA810444EA907444EB0104DC
:101070006D1944EB0404521BA3414FF0000348BF19
:101080000A3200D530BD401C41F1000130BD0000E6
:101090002DE9F0411F46044603260168072A01F4A2
:1010A000006004DB08B116A505E016A503E008B151
:1010B00015A500E015A521F010002060A069C01E54
:1010C000A0610FB1401EA0612046AFF300804FB178
:1010D000D4E9012138469047206A401C2062C01C98
:1010E000206206E0206AFAE7D4E9012115F8010B35
:1010F0009047761EF8D22046AFF30080BDE8F0811D
:101100004E414E006E616E00494E4600696E6600AB
:101110002DE9F047814616468AB0354878440DC817
:101120008DE80D0032487844801C03AC0DC884E87B
:101130000D0041F69B300844372190FBF1F290FB03
:10114000F1F5A5F1800501FB12041B3C02D56442B8
:10115000012000E00020DFF898A080460027FA4434
:10116000AAF1BE0A0EE0E0070AD03246684607EB55
:10117000470101230AEB810100F08BFB8DE807009A
:1011800064107F1C002CEED1194F7F44AE3F19E054
:10119000E80715D007EB04100DF1180A90E80E00CF
:1011A0008AE80E00C068F04201D1981908903246D2
:1011B000012306A903A800F06CFB03AB83E807003A
:1011C0006D10641C002DE3D14FF0010332466946D7
:1011D000B8F1000F03A802D000F046FB01E000F0D8
:1011E00058FBC9E90001C9F808200AB0BDE8F0873A
:1011F000289A080010B500F039F8BDE8104000F05A
:101200002FB870477546FFF7D7FEAE460500694612
:10121000534620F00700854618B020B5FFF77EF84A
:10122000BDE820404FF000064FF000074FF00008E7
:101230004FF0000B21F00701AC46ACE8C009ACE868
:10124000C009ACE8C009ACE8C0098D46704710B5CC
:101250000446AFF300802046BDE81040FFF749B8D0
:10126000002801D000F05EB87047000010B50128DA
:1012700005D0002103A000F05BF8012010BD09A1FA
:10128000F8E7000053494752544D454D3A204F75F9
:1012900074206F662068656170206D656D6F72796E
:1012A000000000003A2048656170206D656D6F7226
:1012B0007920636F72727570746564004FF0013C41
:1012C00050F8042B51F8043B9A4215D1A2EB0C03C1
:1012D000934313EACC130BD150F8042B51F8043B81
:1012E0009A4209D1A2EB0C03934313EACC13E7D043
:1012F0004FF00000704700BFD01A01BAB1FA81F177
:1013000001F0180122FA01F0CB40C1F12001DBB25B
:10131000C0B2C01A2CFA01F3D11A914311EAC311D9
:10132000E6D1704701491820ABBEFEE72600020057
:1013300070B505460C460A2000E06D1C00F011F85F
:1013400035B128780028F8D102E0641C00F009F8D3
:1013500014B120780028F8D1BDE870400A20AFF31E
:10136000008008B569468DF800000320ABBE08BDBB
:101370005FEA400C08BF91F0000F4FEA8C234FEA60
:10138000C12243EA51514FEA1C5018BF00F5F0400A
:101390004FEA300018BF41F000415FEA6C5C00F09A
:1013A0002980BCF1FF3F08BF40F080407047130C1C
:1013B00006BF12044FF0100C4FF0000C130E04BFC8
:1013C00012020CF1080C130F04BF12010CF1040CF3
:1013D000930F04BF92000CF1020CD30F04BF520014
:1013E0000CF1010C11464FF00002A0F11F00A0EB20
:1013F0000C00704711F0004F08BF704731F00041FA
:101400003FF4D5AF0B0C06BF09044FF0100C4FF0A2
:10141000000C0B0E04BF09020CF1080C0B0F04BFEB
:1014200009010CF1040C8B0F04BF89000CF1020CB4
:10143000CB0F04BF49000CF1010CCCF12003A0EB51
:101440000C0022FA03F302FA0CF241EA030100F164
:101450000100704720F07F4C80EA030023F07F47B3
:10146000ACEB070303F57C5300F0004003F1FF03EE
:101470002DE980494FEA154B09B44FEA144325EA98
:101480000B4E24EA03480FF2042606EB1327490803
:101490003E785FEA320203FB0667C7F5000707FBE9
:1014A00006F64FEA54374FEAD64606F1020607FB26
:1014B000066CCCF1005C4FEA1C472CEA074C07FB9A
:1014C00006F40CFB06F504EB15464FEA961634BFFE
:1014D00000204FF000404FEAD13706FB07FC4FEAEF
:1014E0001C4C0CFB0BF7D21B03FB0CF761EB070149
:1014F0000CFB0EF7B0EB074072EB17420CFB08F742
:1015000034BFA2EB0742B2EB074261EB17414FEA4F
:101510000C444FEA910706FB07FC4FEA1C4C0CFBFE
:101520000BF7B0EBC74072EB573203FB0CF734BF3D
:10153000A2EBC742B2EBC74261EB57310CFB0EF78F
:10154000B0EBC70072EB57720CFB08F734BFA2EB8D
:10155000C702B2EBC70261EB5771039F4FEA81618B
:1015600041EA921104EBCC044FEAD1374FEA826290
:1015700006FB07FC42EA90124FEA80604FEA1C4CDF
:101580000CFB0BF7D21B03FB0CF761EB07010CFB09
:101590000EF7B0EB074072EB17420CFB08F734BFB5
:1015A000A2EB0742B2EB074261EB17414FEA8C55C1
:1015B0004FEA910704EB9C2406FB07FC4FEA1C4C06
:1015C0000CFB0BF7B0EBC74072EB573203FB0CF789
:1015D00034BFA2EBC742B2EBC74261EB57310CFB01
:1015E0000EF7B0EBC70072EB57720CFB08F734BF75
:1015F000A2EBC702B2EBC70261EB577115EB4C25AA
:101600004FEA816141EA92114FEA82624FEAD13793
:1016100042EA901206FB07FC44F100044FEA8060A6
:101620004FEA1C4C0CFB0BF7D21B03FB0CF761EBD6
:1016300007010CFB0EF7B0EB074072EB17420CFBF7
:1016400008F734BFA2EB0742B2EB074261EB174148
:1016500015EB1C154FEA813141EA92414FEA823283
:1016600042EA90424FEA80304FEA0C7644F100049F
:1016700048EA03434EEA0B484FF0000EB2EB080C69
:1016800071EB030724BF624639464EEB0E0E4FF056
:10169000000B0018524149414BEB0B0BB2EB080C0D
:1016A00071EB03077BF1000B24BF624639464EEB1A
:1016B0000E0E4FF0000B0018524149414BEB0B0B43
:1016C000B2EB080C71EB03077BF1000B24BF624601
:1016D00039464EEB0E0E51EA020718BF46F00106DE
:1016E00016EB0E7655F1000254F1000103D5BDE86A
:1016F0008901BDE80088BDE88901BDE80048B61948
:10170000524141EB0101A3F10103704780807F7ECC
:101710007D7C7B7A79787776767574737271717067
:101720006F6E6E6D6C6C6B6A6A6968686766666519
:101730006464636362616160605F5F5E5E5D5D5CA7
:101740005C5B5B5A5A595958585757565655555518
:101750005454535352525251515050504F4F4F4E78
:101760004E4D4D4D4C4C4C4B4B4B4A4A4A494949C6
:101770004848484747474746464645454544444408
:10178000444343434342424242414141002B9C4631
:1017900030D477002BD01CB54FEA370703B44FF095
:1017A00010004FF01001BAF1000F06D0BCF1000F8D
:1017B000DCBF40F0080040F008014FF000000FBC13
:1017C000BDE810400BF1010BBBF1010F08BF5FEA50
:1017D000170722BF12F1010211F101014FF0004180
:1017E00043F1000300F0004043EA00007047F9D3E2
:1017F0005708D0E746EA064613F1400F4FEA16466F
:101800001FDD13F1200FDFBF16430A4600212033EE
:101810005B42BED0C3F1200746EA064602FA07F74C
:101820004FEA164646EA0706C3F1200722FA03F2FA
:1018300001FA07F721FA03F14FF0000342EA070229
:10184000A7E746EA020646EA06464FEA164646EA91
:101850000106BCBF46EA0646360C4FF000034FF0C7
:1018600000024FF0000194E72DE9804C9A46934620
:1018700070B491E8380007C831EA400C48BF34EA38
:10188000430C03D5FFF7E6FDFFF780FFF0BCBDE892
:10189000008C2DE9804C9A46934670B491E838004C
:1018A00007C810F0804F08BF13F0804F03D100F03D
:1018B00005F8FFF76BFFF0BCBDE8008C20F07F4718
:1018C00080EA030023F07F4C07EB0C03A3F57C5365
:1018D00000F00040A3F1FE0392F0000F00F0B3808F
:1018E00095F0000F00F077802DE901494FEA114093
:1018F0004FEA144621EA004800FB06FC24EA0647AA
:1019000008FB06F607FB08F800FB07F718EB06488C
:101910004CEB164C4FEA124B18EB07484FEA1546B2
:101920004CEB174022EA0B4E0BFB06FC25EA064760
:101930000EFB06F607FB0EFE0BFB07F71EEB064E33
:101940004CEB164C4FF000061EEB074E4CEB174BC2
:1019500018EB0B0840F1000018EB0E0B58EB0008D9
:1019600040F100008F1A4FF000013CBFC943661BD5
:1019700014BFB5EB040C00213CBFC943F61B4FEA72
:1019800017444EEA8E0E27EA04454FEA1C4704FB33
:1019900007622CEA074C05FB07F70CFB05F604FB76
:1019A0000CFC16EB074642EB174216EB0C4642EBDB
:1019B0001C421BEB060658EB0202414146EA9E061A
:1019C00001D5BDE80189B619524141EB0101A3F1EE
:1019D0000103BDE801894FEA14454FEA114724EAA3
:1019E000054621EA074C05FB07F406FB07F70CFB4D
:1019F00006F105FB0CFC11EB074144EB17444FEAE1
:101A0000124711EB0C4144EB1C4422EA074C05FB46
:101A100007F206FB07F70CFB06F605FB0CFC16EBC2
:101A2000074642EB174216EB0C4642EB1C456A1880
:101A300054F1000148BF7047B619524141EB010112
:101A4000A3F10103704795F0000F37D04FEA114220
:101A50004FEA144721EA024624EA074C02FB07F149
:101A600006FB07F70CFB06F402FB0CFC14EB074427
:101A700041EB17414FEA154714EB0C4441EB1C4175
:101A800025EA074C02FB07F506FB07F70CFB06F6F9
:101A900002FB0CFC16EB074645EB174516EB0C4614
:101AA00045EB1C42121951F1000148BF7047B619AD
:101AB000524141EB0101A3F1010370474FEA144584
:101AC0004FEA114724EA054621EA074C05FB07F1D6
:101AD00006FB07F70CFB06F24FF0000605FB0CFCBB
:101AE00012EB074241EB174112EB0C4251EB1C4148
:101AF00048BF7047921841EB0101A3F10103704701
:101B0000F0B5524B2DED048BDFED514A9FED518A1C
:101B1000DFED518A9FED519A534E0020DFED506A60
:101B20009FED507AF0EE007A4FF4947203EB80014F
:101B300091ED000A5FF00001F0EE401AF0EE403A3D
:101B4000F0EE400AB0EE403AF0EE402AB0EE401A15
:101B5000B0EE402A01EB4104F0EE615A03EBC405FC
:101B600005EB8005B0EE406A95ED005A06EBC40423
:101B700004EB800425EE244A491C914201EE884A78
:101B8000F0EE451A03EEA44AF0EE653A00EEA84ADC
:101B900003EE094AB0EE603AB0EE445AF0EE440A61
:101BA00000EE275AB0EE440A35EE224AF0EE462AFD
:101BB00001EE264A02EE074AB0EE412A84ED004AC1
:101BC000B0EE441AC6DD401C0628AFDBDFF8A0C02B
:101BD0000023DFED260A00200024811E851CB0EEC4
:101BE000600A0DE091420AD801EB4107641C06EB44
:101BF000C70707EB830797ED001A31EE000A491C6F
:101C0000A942EFDD01EE104A0CEB8001401CB8EE5A
:101C1000C11A9042C0EE011AC1ED001ADCDD0020AD
:101C200000EB40010CEB800406EBC10194ED000ACF
:101C300001EB8301401C904281ED000AF0DD5B1C4A
:101C4000062BC8DBBDEC048BF0BD0000FC100020AF
:101C50000CD8443A67DBC43AC5FAB23F7FC3FFBE33
:101C600088B8D13F19D141BFD42C0020000000001A
:101C7000AC9F0220FEE77047402000F07FB872B6AC
:101C8000FEE73EB50C4606212D220091002101AB56
:101C900001F07CFEBDF8040040BA00B200EE100A6C
:101CA000B8EEC00A84ED000ABDF8060040BA00B2E2
:101CB00000EE100AB8EEC00A84ED010ABDF8080073
:101CC00040BA00B200EE100AB8EEC00A84ED020A73
:101CD000BDF8040040BAA081BDF8060040BAE0811A
:101CE000BDF8080040BA20823EBD3EB50C46062134
:101CF00033220091002101AB01F048FEBDF8040041
:101D000040BA00B200EE100AB8EEC00A84ED000A34
:101D1000BDF8060040BA00B200EE100AB8EEC00AE4
:101D200084ED010ABDF8080040BA00B200EE100AC6
:101D3000B8EEC00A84ED020ABDF8040040BAA081E2
:101D4000BDF8060040BAE081BDF8080040BA208224
:101D50003EBD000070B5044600F052F90546601C17
:101D600002D004480078044400F04AF9401BA04225
:101D7000FAD370BD4C10002070470000044910B524
:101D80000A68024202D00860FFF7F6FF10BD0000AB
:101D9000143C01402DE9F84FDFF80CB20124032573
:101DA0004FF00F0A00220BF1040E00BF0B6804FA7B
:101DB00002F63340B34278D10F7907F00307012FC1
:101DC00001D0022F1AD187684FEA4209D1F80CC01E
:101DD00005FA09F827EA08070CFA09FC4CEA070C8F
:101DE000C0F808C0476891F804C0B743CCF3001CA2
:101DF0000CFA02FC4CEA070CC0F804C00E79F6435A
:101E0000B6070BD0C6684FEA420C8F6805FA0CF88B
:101E100026EA080607FA0CF73743C7600E7906F082
:101E20000306022E12D1D6084FEA427800EB86064E
:101E300000960F69D6F820904FEAD8660AFA06FC99
:101E4000B74029EA0C063743009E37620F790668CF
:101E50004FEA420C07F0030705FA0CF807FA0CF7F3
:101E600026EA0806374307604E6816F4403F1CD048
:101E70004E4E376847F480473760366822F00308D3
:101E8000970706F480460096494E3F0F4644B146F8
:101E9000D6F80868DFF81C810AFA07FC404526EAF4
:101EA0000C0603D14FF0000C41E076E0DFF808C1EA
:101EB000604502D14FF0010C39E0DFF800C1604508
:101EC00002D14FF0020C32E0DFF8F4C0604502D1DD
:101ED0004FF0030C2BE0DFF8ECC0604502D14FF06F
:101EE000040C24E0DFF8E0C0604502D14FF0050C9F
:101EF0001DE0DFF8D8C0604502D14FF0060C16E0B7
:101F0000DFF8CCC0604502D14FF0070C0FE0DFF8DE
:101F1000C4C0604502D14FF0080C08E0DFF8B8C03B
:101F2000604502D14FF0090C01E04FF00A0C0CFAA9
:101F300007FC4CEA060CC9F808C84F68DBF80060DB
:101F4000FF0226EA030600D51E437746CBF8006061
:101F5000D1F804C0DEF800605FEA8C2C26EA0306A4
:101F600000D51E43DFF840C03E60ACF1040C4F6862
:101F7000DCF80060BF0326EA030600D51E430A4FC3
:101F8000CCF80060083FD1F804C03E685FEACC3C62
:101F900026EA030600D51E433E60521C102AFFF4B9
:101FA00005AFBDE8F88F0000083C0140443802400E
:101FB00000300140000002400004024000080240DE
:101FC000000C0240001002400014024000180240C1
:101FD000001C02400020024000240240006908402A
:101FE00000D001207047426921EA02030A4043EA17
:101FF0000241816170470AB1816170470904FBE7C2
:1020000001488068704700004C10002030B590F8FF
:102010004120202A24D190F84020012A20D00123F9
:1020200080F84030242280F84120202300240268D8
:10203000156825F0010515600268156825F48055BE
:102040001560026815680D43156001680A6842F062
:1020500001020A6080F8413080F84040002030BD25
:10206000022030BD30B590F84120202A22D190F8CE
:102070004020012A1ED0012380F84030242280F81D
:102080004120202400250268136823F00103136017
:102090000268136823F4706343EA01211160016848
:1020A0000A6842F001020A6080F8414080F840501E
:1020B000002030BD022030BD70B5040004D094F87B
:1020C0004100002510B106E0012070BD204684F8D3
:1020D000405000F0AFF9242084F8410020680168E6
:1020E00021F001010160D4E9001020F07060086166
:1020F0002068816821F400418160E068216801283E
:10210000A06830D040F404408860E068022820686D
:1021100041682BD021F40061416020682021154ADC
:102120004368134343602068C26822F40042C260DF
:1021300054F8106B0DCC104340EA0320F06054F8C3
:102140001C3CD4E900021043186054F81C0D0268CE
:1021500042F001020260656484F84110256384F84E
:102160004250002070BD40F40040CDE741F40061D2
:10217000D2E70000008000022DE9FF4F83B0044643
:1021800090F841009B46DDE91087DDF848A0202843
:1021900076D15FEA080015D0A7B194F84000012875
:1021A0006ED04FF0010984F84090FFF729FF01221B
:1021B000064619230090D103204601F0B9FA002801
:1021C00072D103E04FF4007060646DE00025C4F844
:1021D0002480222184F84110402084F84200656464
:1021E00067855B4665632046CDE900A6DDE90412FC
:1021F00001F022FA10B184F8405055E0618D4FF0A3
:10220000807734484FF00078FF2905D9A4F828904A
:102210004A463B46009005E0618D4346218500908B
:1022200094F828202046049901F06AFA00225346C7
:1022300004212046009601F07BFAA8BB2068616A61
:10224000406A0870606A401C6062208D401E81B246
:102250002185608D401E6085608DE0B1D9B9002276
:10226000534680212046009601F062FAE0B9608D65
:10227000FF2806D9A4F828904A463B46009506E078
:1022800026E0608D43462085009594F8282020465E
:10229000049901F035FA608D0028C7D132465146C5
:1022A000204601F083FA18B1012007B0BDE8F08F95
:1022B00020682021084AC1612068436813404360B8
:1022C00084F8411084F84250002084F84050ECE734
:1022D0000220EAE70024008000E800FE2DE9FF4F1D
:1022E00083B0044690F841009A469346DDE9108792
:1022F000DDF84890202871D15FEA080014D09FB122
:1023000094F84000012869D0012084F84000FFF7CC
:1023100077FE0122064619230090D103204601F0E2
:1023200007FA00286ED103E04FF40070606469E0A2
:102330000025C4F82480212184F84110402084F82D
:10234000420065646785534665635A460499204692
:10235000CDE9009601F0A2F910B184F8405051E0A7
:10236000608DFF274FF08078FF284FF0007A04D966
:1023700027853A464346009505E0608D5346208503
:10238000009594F828202046049901F0B9F93246C6
:102390004946204601F036FAA0BB606A2168007801
:1023A0008862606A401C6062608D401E6085208D7E
:1023B000401E80B22085618DD9B1D0B900224B4634
:1023C00080212046009601F0B3F9D8B9608DFF282E
:1023D00005D927853A464346009506E026E0608DFC
:1023E00053462085009594F828202046049901F052
:1023F00087F9608D0028CAD132464946204601F04F
:10240000D5F918B1012007B0BDE8F08F2068202170
:10241000074AC161206843681340436084F8411053
:1024200084F84250002084F84050ECE70220EAE7AC
:1024300000E800FE10B5AAB00446142124A8FEF757
:1024400071FA90216846FEF76DFA194920688842B2
:102450002BD10024199400140090684600F05EF916
:1024600008B1FFF70CFC1348016841F0020101605C
:1024700000680DF1900C122100F0020029904FF439
:10248000407004238CE8130003220B48CDE9272376
:1024900024A9FFF77FFC07481030016841F40011C0
:1024A0000160006800F4001029902AB010BD0000FF
:1024B0000054004030380240000402400248816865
:1024C00002781144816070474C100020032010B541
:1024D00000F0BCF80F2000F005F800F071F80020C3
:1024E00010BD000070B50D4D04464FF47A700C4AD3
:1024F00029781268B0FBF1F0B2FBF0F000F067FE53
:1025000048B9102C07D200222146501E00F07EF858
:1025100000206C6070BD012070BD00004C100020D8
:1025200058100020154BF0B5083B427813491A604B
:102530000B680A1F23F001030B6043681360057BDF
:10254000C67A827A437B2D07847B45EA0665C77B82
:1025500090F809C0067A90F800E045EAC24040EAE7
:10256000834040EA444040EA074040EA0C2040EA09
:10257000460040EA0E000860F0BD0000A0ED00E05B
:10258000BFF35F8F044800210368034A23F48033BC
:10259000036070321160704724ED00E0074A40F09C
:1025A0000100064970321060086840F4803008600D
:1025B000BFF34F8FBFF36F8F7047000024ED00E033
:1025C0000A4808B5016841F080510160006800F0D8
:1025D000805000900548001D016841F48041016071
:1025E000006800F48040009008BD000040380240C0
:1025F000002809DB410900F01F028900012001F1D8
:10260000E0219040C1F80001704700000E4BF0B48B
:102610001B680D46C3F30223C3F10706042E00D93D
:102620000426191D072901D2002300E0DB1E012426
:1026300004FA06F19C40491E2940641E994014404A
:102640002143F0BC01F06ABE0CED00E0064900F049
:10265000070210B54FF6FF040868044B204040EA1B
:1026600002201843086010BD0CED00E00000FA05E0
:102670001848F8B5016841F0805101600068164CB7
:1026800000F080500090206840F480302060FFF718
:10269000B7FC4FF47A76054605E000BFFFF7B0FCC3
:1026A000401BB0420FD86068C003F7D5206840F4E3
:1026B00000302060FFF7A4FC054606E0FFF7A0FC11
:1026C000401BB04201D90320F8BD60688003F5D5F6
:1026D0000020F8BD403802400070004010B50D4C9D
:1026E0000D4A236823F0030303432360106840F07E
:1026F00004001060BFF34F8FBFF36F8F012907D025
:1027000040BF20BF20BF106820F00400106010BD43
:1027100030BFF8E70070004010ED00E02DE9F84F01
:1027200004460078DFF824944FF000063746C007CF
:102730000ED0D9F8001021F40001C9F80010D9F822
:102740000010626B1143C9F80010606B00B90126DC
:10275000FE4D2068843500030ED5E16B286820F417
:10276000401008432860E06BB0F5801F01D010B125
:1027700002E0012600E0012720684FF4800BC00230
:102780000CD5216C286820F4400008432860206C98
:10279000584501D1012601E000B901272068C10197
:1027A00000D50126800666D5E8483830016841F03A
:1027B000805101600068DFF898A300F0805000901D
:1027C000DAF8001041F48071CAF80010FFF718FC25
:1027D000804605E0FFF714FCA0EB080064287DD8D4
:1027E000DAF80000C005F5D5DFF8608308F1680865
:1027F000D8F8000010F440702AD0218E01F4407106
:10280000814225D0D8F80010D8F8002021F440717A
:1028100042F48032C8F80020D8F8002022F4803238
:10282000C8F80020C8F80010D8F80000C0070FD082
:10283000FFF7E6FB824607E0FFF7E2FBA0EB0A01A9
:1028400041F288308142CAD8D8F800008007F3D519
:10285000206BC0F3012103297ED0D9F8001021F4A8
:10286000F811C9F80010228ED8F80010C2F30B023C
:102870001143C8F800102078C00607D5286820F05A
:10288000807028602868A16B084328602188AF48C1
:102890008830490405D5626E016821F44031114346
:1028A00001602188090405D5A26E016821F4402148
:1028B000114301602168C90305D5E26E016821F466
:1028C0004011114301602168890305D5226F016819
:1028D00021F4400111430160217800E034E1490610
:1028E00005D5626C016821F0030111430160217874
:1028F000090605D5A26C016821F00C0111430160A5
:102900002188C90505D5E26C016821F03001114329
:1029100001602188890505D5226D016821F0C0017B
:10292000114301602188490505D5626D016821F4D4
:102930004071114301602188090505D5A26D016828
:1029400021F44061114301602188C90407D5E26D7B
:10295000016821F4405100E068E0114301602188E2
:10296000890405D5226E016821F4404111430160BC
:102970002168490205D5A26F016821F080611143E9
:10298000016021684FF0006A890209D5E26F016891
:1029900021F0006111430160E16F514500D1012731
:1029A00021680A0700D50127490305D5626F016830
:1029B00021F04071114301602168090206D5D4F865
:1029C0008020016821F08051114301602168490194
:1029D00006D5D4F88420016821F00051114301602C
:1029E0002068000106D5D4F88810286820F000700F
:1029F000084328602068C00006D5D4F88C102868E9
:102A000020F0806008432860DFF84891012E02D052
:102A1000206880017ED5D9F800004E4620F0806005
:102A2000C9F80000FFF7ECFA80460FE04A4AD9F8EF
:102A30000030104023F4F8120243C9F8002012E7D6
:102A4000FFF7DEFAA0EB080064287DD830680001AB
:102A5000F6D421783D487C30C90712D0616B81B92A
:102A6000237A62680168D0F800C09201C1F3014185
:102A700042EA0142CCF3036142EA016141EA037197
:102A8000016021680A0303D5E26BB2F5801F04D010
:102A9000C9021AD5216C594517D16368016894F8A9
:102AA0000CC002689B01C1F3014143EA0141C2F33A
:102AB000027241EA0C6141EA027101602968626AAE
:102AC00021F01F01521E114329602168C90110D550
:102AD000238A62680168D0F800C09201C1F30361E3
:102AE00042EA034242EA0162CCF3027142EA017116
:102AF0000160216889010CD56168228A237B94F8E2
:102B000008C0890141EA024141EA036141EA0C71CE
:102B1000016000E011E03168B04641F08061316051
:102B2000FFF76EFA064604E0FFF76AFA801B642896
:102B30000AD8D8F800000001F6D5E7B3D9F80000AC
:102B40004E4620F0805009E07BE00000083802404B
:102B50000070004000380240FFFCFF0FC9F8000081
:102B6000FFF74EFA074604E0FFF74AFAC01B642855
:102B700067D83068C0438000F6D5216835480A031D
:102B800001D5E26B1AB1C9021DD5216CD9B96369AF
:102B90000168277E02689B01C1F3014143EA0143BA
:102BA000C2F3027143EA076242EA017101602968D7
:102BB0006FF0FF0300E04BE0A26A21F4F85103EB51
:102BC0000222114329602168890212D5E16F514523
:102BD0000FD1238C6269016807689201C1F3036118
:102BE00042EA034242EA0162C7F3027142EA01711A
:102BF00001602178090716D561690268D0F800C024
:102C00008B01277FC2F30362CCF3014143EA014108
:102C100041EA026141EA077101602868E16A20F433
:102C2000403008432860306840F080503060FFF743
:102C3000E7F9044608E000BFFFF7E2F9001B64284B
:102C400002D90320BDE8F88F3068C0438000F3D478
:102C50000020F7E7883802402DE9F04705000F46CD
:102C600063D0444E306800F00F00B84209D230689B
:102C700020F00F0038433060306800F00F00B84299
:102C800053D128683C4C810712D5400703D52068F2
:102C900040F4E05020602878000703D5206840F415
:102CA00060402060A968206820F0F00008432060A0
:102CB0002878C0072AD0304968680839012810D020
:102CC0000968022810D0890700292EDA216821F02E
:102CD000030101432160FFF793F9804641F28839EF
:102CE0000DE009688903EFE78901EDE7FFF788F94F
:102CF000A0EB0801494502D90320BDE8F0876868C8
:102D0000216801F00C01B1EB800FEFD1306800F0C9
:102D10000F00B8420BD9306820F00F003843306004
:102D2000306800F00F00B84201D00120E5E72878B4
:102D3000400705D5E968206820F4E050084320608A
:102D40002878000706D52869216821F4604141EA06
:102D5000C000206000F038F82168084AC1F3031170
:102D6000515CC8400649086006480068FFF7BAFB96
:102D70000020C2E7003C024008380240F0A80808E2
:102D800058100020501000200449054809680068C8
:102D9000044AC1F38221515CC840704708380240A0
:102DA0005810002000A9080804490548096800686F
:102DB000044AC1F34231515CC840704708380240B0
:102DC0005810002000A90808154910B515480968D1
:102DD00011F00C0213D04110042A0FD0082A0ED192
:102DE0000F4C241F2268236802F03F025B0207D5C4
:102DF0002068C0F38810A0FB010106E0084610BD62
:102E00002168C1F38811A1FB00010023FDF7EEFA50
:102E10002168C1F30141491C4900B0FBF1F010BD2C
:102E2000083802400024F4002DE9F84F04004FF068
:102E300000076ED02078DFF87CA3AAF10408C00751
:102E4000A8F104054CD0DAF800105046C1F3810116
:102E5000012908D00068C0F3810002280AD1D8F8FF
:102E60000000400206D52868800339D56068002834
:102E7000DFD035E06068B0F5803F0BD010B1B0F521
:102E8000A02F11D0286820F480302860286820F412
:102E9000802002E0286840F480302860606890B1AB
:102EA000FFF7AEF806460AE0286840F48020286064
:102EB000F0E700BFFFF7A4F8801B642872D82868E9
:102EC0008003F7D50CE0FFF79BF8064605E000BF4E
:102ED000FFF796F8801B6428F0D828688003F7D4A1
:102EE0002078800742D5DAF80010504611F00C0F18
:102EF00008D00068C0F3810002280BD1D8F8000088
:102F0000400207D42868800718D5E068012800D15E
:102F100014E04AE1E0680028286817D040F001007A
:102F20002860FFF76DF8064605E000BFFFF768F878
:102F3000801B0228C2D828688007F7D52069296835
:102F400021F0F80141EAC00028600FE020F0010004
:102F50002860FFF755F8064605E000BFFFF750F878
:102F6000801B02281ED828688007F7D42078000725
:102F700029D5904861696C3000298146016812D0DA
:102F800041F001010160FFF73BF8064605E000BF94
:102F9000FFF736F8801B022804D8D9F80000800714
:102FA000F6D510E089E021F001010160FFF728F873
:102FB000064604E0FFF724F8801B02287DD8D9F8E4
:102FC00000008007F6D4207840076BD5DFF8E49145
:102FD00009F13809D9F80000C0000BD4D9F8001065
:102FE00041F08051C9F80010D9F80000012700F025
:102FF0008050009070480168C90512D4016883466A
:1030000041F480710160FEF7FBFF064605E000BF5A
:10301000FEF7F6FF801B64284FD8DBF80000C005E0
:10302000F6D5644EA068683601280AD008B1052894
:1030300011D0306820F001003060306820F00400CA
:1030400002E0306840F001003060A068A0B1FEF7F7
:10305000D7FF83460CE0306840F004003060F0E7B2
:10306000FEF7CEFFA0EB0B0141F28830814268D819
:1030700030688007F4D50EE0FEF7C2FF834607E014
:10308000FEF7BEFFA0EB0B0141F28830814258D819
:1030900030688007F4D42FB1D9F8001021F08051A6
:1030A000C9F80010A069E0B3DAF80010C1F381019B
:1030B00002294DD00228286800E042E020F080700C
:1030C000286003D0FEF79CFF04463DE0FEF798FF22
:1030D000064604E0FEF794FF801B022831D82868DA
:1030E0008001F7D4D4E90921DFF8D0C0D4E907067C
:1030F00094F830304F0894F82C1030430CEB074410
:1031000044EA8212104340EA016040EA0370C8F8C2
:103110000000286840F080702860FEF771FF0446C8
:1031200005E044E0FEF76CFF001B022809D8286880
:103130008001F7D53BE000BFFEF762FF001B0228CD
:1031400002D90320BDE8F88F28688001F4D42EE06E
:103150000128D8F8000028D0E16900F480028A42F2
:1031600023D1216A00F03F028A421ED1626A47F6EB
:10317000C0710140B1EB821F17D1A16A4FF0FF323D
:1031800000F4403302EB5101B3EB014F0DD194F841
:103190002C1000F07062B2EB016F06D194F8301081
:1031A00000F0E040B0EB017F01D00120CAE7002031
:1031B000C8E7000008380240007000400000FFFF30
:1031C0004FF0E020016941F0020101617047401EAB
:1031D000B0F1807F10B501D3012010BD4FF0E02485
:1031E00060610F21601701F099F80020A0610721AC
:1031F000216110BD4FF0E020016921F00201016161
:10320000704710B5040002D0E06F10B107E0012054
:1032100010BD002084F87800204600F025F8242016
:10322000E0672068016821F001010160606A10B167
:10323000204600F007FE204600F0E2FE0128E7D01D
:103240002068416821F4904141602068816821F044
:103250002A0181602068016841F001010160204677
:10326000BDE8104000F052BE10B5AAB004461421CB
:1032700024A8FDF757FB90216846FDF753FB18493A
:10328000206888422AD18020009000246846129449
:10329000FFF744FA08B1FEF7F2FC1248016841F466
:1032A00000310160006800F4003029900D481038AA
:1032B000016841F00101016000680DF1900C0221EC
:1032C00000F0010029900C2007238CE81300032252
:1032D0000548CDE9272324A9FEF75CFD2AB010BDDF
:1032E0000044004040380240000002402DE9F84F01
:1032F0000446D0F880009B4616460D46202802D092
:103300000220BDE8F88FC5B1BEB10027C4F88470B3
:103310002220C4F8800027661C34FEF771FE824626
:1033200054F8140CA6874FF48053E687FF211C3C09
:10333000984207D1226912B119E00120E1E740F279
:10334000FF1114E04FF07F0278B1B0F1805F11D02F
:10335000A4F85C709842B4F85C704FF0200801D17A
:10336000206970B12E4600250CE0266936B9A4F814
:103370005C10EFE7216909B13F21F8E7A4F85C2070
:10338000E8E7002607F0FF09B4F85A00F0B1002280
:10339000534620212046CDF800B000F049FF18B177
:1033A000C4F880800320ACE72068406A56B100EA88
:1033B000090006F8010B00BFB4F85A00401EA4F83B
:1033C0005A00E1E7384025F8020BF5E7C4F88080A1
:1033D000002096E72DE9F8430446C06F984616464C
:1033E0000D46202802D00220BDE8F88395B18EB1A9
:1033F0000021C4F884102120E067FEF701FE814619
:10340000A068A4F85060A4F852602027B0F5805F4F
:1034100002D003E00120E7E7206910B12E46002525
:1034200010E000260EE08021204600F001FFC0B928
:10343000D6B116F8010B21688862B4F85200401E1C
:10344000A4F85200B4F852004B464FF00002CDF8F9
:1034500000800028E7D14FF04001204600F0E8FE50
:1034600040B1E7670320BFE735F8020B2168C0F3DE
:103470000800E1E7E7670020B6E7000000B591B07B
:103480004022694608A000F01FF84FF4FA70FEF7DA
:1034900061FC4022694609A000F016F84FF47A70EA
:1034A000FEF758FC11B000BD41542B4E414D454232
:1034B000542D544553545F373436000041542B5239
:1034C000455345540000000070B50D4606461446AD
:1034D00011462846FDF704FA3046FDF729F982B275
:1034E00007484FF0FF333146FFF774FF641E29464B
:1034F000A2B20348BDE87040C823FFF7F7BE000042
:10350000A4A40220FEE701688A69D243920701D48D
:1035100000228A6200688169C943C90703D08169B2
:1035200041F00101816170472DE9F04704460068D0
:103530000026894617464FF0200835468169C9069E
:1035400041D51021C1612FE0B9F1FF3F2CD0FEF72A
:1035500057FDC11B494502D8B9F1000F24D120689D
:10356000426894F84210836902F48042DB431B04F2
:1035700015D4B2F5804F12D0202910D0416841F403
:1035800080414160FEF73CFD074608E0FEF738FD4C
:10359000C01B192803D9012645F0200504E0206846
:1035A0008069C0438006F1D420688069C0438006EA
:1035B00002D5002EC8D003E016B92168C1F81C80DE
:1035C000012645F0040521688869C20505D54FF438
:1035D0008072CA6145F00105012641050AD52168BE
:1035E00080054FF4806245F00805CA614FF001067E
:1035F00002D40AE0800507D5206801264FF4007147
:1036000045F00205C16100E08EB12046FFF77BFF67
:1036100020680021074F43683B404360606C2843AB
:10362000606484F8418084F8421084F84010304689
:10363000BDE8F08700E800FE2DE9F8431746044690
:103640001548DAB2DDE908981E46009000232046AE
:1036500000F056F842464946204600F0D3F8B8B983
:10366000012EFDB208D02068390A816242464946DF
:10367000204600F0C7F858B9206885620022402132
:103680004B462046CDF8008000F052F8002800D0CC
:103690000120BDE8F8830000002000802DE9F843F8
:1036A0000446164817461E46DAB20090C30220466A
:1036B000DDE9089800F024F842464946204600F02B
:1036C000A1F8B8B9012EFDB208D02068390A81628C
:1036D00042464946204600F095F858B92068856270
:1036E000002280214B462046CDF8008000F020F8D3
:1036F000002800D00120BDE8F883000000200080F1
:1037000070B50068C1F3090141EA0241074D049C0C
:1037100019434FF480664268214306EA54532B4311
:103720009A4321F000410A43426070BDFF63FF03EA
:103730002DE9F0411D4617460E460446DDF8188077
:1037400028E0424629462046FFF7EEFE10B1012050
:10375000BDE8F081681C1DD0FEF752FCA0EB08000C
:10376000A84200D8B5B92068806936EA00000FD0B9
:103770000020B8420ED1626C002084F84000202165
:1037800042F02002626484F8411084F84200DEE7CF
:103790000120EEE72068806936EA000004D00020AE
:1037A000B842CED00020D3E70120F9E770B5164625
:1037B0000D4604461FE0324629462046FFF7B4FE78
:1037C00008B1012070BDFEF71BFC801BA84200D889
:1037D0008DB920688069C04380060CD5626C0020DA
:1037E00084F84000202142F02002626484F84110F5
:1037F00084F84200E5E720688069C0438006DAD497
:10380000002070BD70B516460D46044621E03246D4
:1038100029462046FFF788FE08B1012070BD681CCC
:1038200017D0FEF7EDFB801BA84200D88DB92068A9
:103830008069C04380070CD5626C002084F840008A
:10384000202142F02002626484F8411084F8420092
:10385000E3E720688069C0438007D8D4002070BDAA
:1038600030B587B005461EA001248DF818401422FB
:103870000068022101ABCDE90040284600F0D0F8F5
:1038800018A001220221006802AB00940290284691
:1038900000F0C6F814A000220221006803AB0094D7
:1038A0000390284600F0BCF80020009410220490F9
:1038B0000221284604AB00F0B3F80BA0112202212C
:1038C000006805AB00940590284600F0A9F8112285
:1038D00028460021009406AB00F0A2F807B030BDE6
:1038E00019000000110000000C00000070B586B047
:1038F000002163220C468DF80C2001264FF47A75C6
:10390000017003A80295CDE900061D48012300229D
:10391000D121FEF731FC18B99DF80C00EA2807D038
:10392000641C6420E4B2FEF715FA052CE9D301E02B
:10393000052C02D3002006B070BD12A004A90123FB
:1039400000680622CDE900160490D0210C480295AB
:10395000FEF7C4FCC820FEF7FDF90BA005A9012362
:10396000006806220590CDE900160548D021029591
:10397000FEF7B4FC3220FEF7EDF90120DBE7000092
:1039800050A4022081000000010000002DE9FF4743
:10399000064600780D469846DDF83090A8424FF470
:1039A0007A7792464FF000040FD00121029703AAC4
:1039B0000B4628018DF80C00CDE9002111487F222B
:1039C000D021FEF78BFC04463570CDF80080012332
:1039D0000C48D121CDE901975246FEF7CDFB50EAC4
:1039E00004050AD00C4864230D2207A1FFF7F2FC5E
:1039F0000A4800228021FEF7FEFA04B02846BDE8FE
:103A0000F087000050A4022049636D204173736564
:103A10007274210D0A000000A4A4022000080240D4
:103A20002DE9FF47064600780D469846DDF83090B0
:103A3000A8424FF47A7792464FF000040FD001214C
:103A4000029703AA0B4628018DF80C00CDE900214E
:103A500011487F22D021FEF741FC04463570CDF895
:103A6000008001230C48D021CDE901975246FEF792
:103A700035FC50EA04050AD00C4864230D2207A146
:103A8000FFF7A8FC0A4800228021FEF7B4FA04B030
:103A90002846BDE8F087000050A4022049636D204D
:103AA000417373657274210D0A000000A4A4022002
:103AB000000802401CB501211A2201AB009100212F
:103AC000FFF764FF9DF8040000F001001CBD00003A
:103AD0002DE9F0410D4E00240F46054611E000226D
:103AE00030468021FEF787FA3846FEF733F9012287
:103AF00030468021FEF77FFA3846FEF72BF9641C2A
:103B0000E4B2AC42EBD3BDE8F08100000008024013
:103B10002DE9F04186B014216846FCF703FF3148D7
:103B2000016841F002010160016801F002010591A4
:103B3000016841F001010160016801F00101059196
:103B4000016841F080010160016801F08001059188
:103B5000016841F004010160006800F00400059074
:103B600020481430016841F48041016000684FF43E
:103B700040661D4F002200F48040314605903846D3
:103B8000FEF739FADFF86480012280214046FEF713
:103B900032FA00240096012569463846CDE90154E1
:103BA0000394FEF7F7F880200090CDE901546946B0
:103BB00040460394FEF7EEF84FF48810029440213B
:103BC000CDE9001069464046FEF7E4F800220521E1
:103BD0001720FEF71BFD1720FEF70AFD06B0BDE813
:103BE000F08100003038024000000240000802402E
:103BF0001348002110B5114C0123124A0460C0E99A
:103C00000121C0E9033141618161C1610162FEF7B7
:103C100053FA08B1FEF733F809480021FEF7F6F928
:103C200008B1FEF72CF806480021FEF71BFA002821
:103C300003D0BDE81040FEF722B810BD005400408C
:103C400050A402205D3E30200D48002110B50B4CE1
:103C50000C224FF416530460C0E90131C160C0E981
:103C600004128161C16101624162FFF7CAFA002852
:103C700003D0BDE81040FEF702B810BD004400407C
:103C8000A4A40220FEE7FEE77047000070B50546D9
:103C9000FEF7B6F9094E044607E000BFFEF7B0F99B
:103CA000001BA84201D3012070BD40213046FEF721
:103CB00095F90128F2D0002070BD000000080240F4
:103CC0002DE9F041104C4025104E40F2DC574021C8
:103CD0002046FEF783F90128F9D0356001228021C2
:103CE0002046FEF788F9FFF785FA01210846FEF71E
:103CF000F5FC00F011F8FFF763FA3846FFF7C6FF4E
:103D00000028E4D0BDE8F08100080240143C0140E6
:103D10007047FEF7D3BB000070B594B034216846FD
:103D2000FCF700FE14210DA8FCF7FCFD20480168FB
:103D300041F080510160006800F0805012901D48F1
:103D4000016841F440410160006800250DF1200C3C
:103D5000022400940822C0230926CDE9064500F478
:103D6000404012908CE85C0010210C940120CDE9B9
:103D700003016846FFF758F808B172B6FEE7FEF790
:103D800077FC08B172B6FEE74FF480524FF4A051B1
:103D90000F20CDE910120DAA062182E831000DA8EE
:103DA000FEF75AFF002801D072B6FEE714B070BDCE
:103DB00040380240007000400248016841F4700140
:103DC0000160704788ED00E00122114810B5D10272
:103DD000FEF711F978210220FFF77AFE0D48FFF770
:103DE00085FD040006D00B48FFF73AFD64230E2240
:103DF00009A102E0642310220BA11048FFF7EAFAA0
:103E00000F4801228021FEF7F6F8204610BD000081
:103E1000000002403C100020494D5520496E697455
:103E2000204F4B210D0A0000494D5520496E697401
:103E3000204641494C210D0A00000000A4A40220A4
:103E40000008024090F82410090706D50168436B6A
:103E50004A6822F400421A434A6090F82410C907C5
:103E600006D00168836A4A6822F400321A434A6025
:103E700090F82410890706D50168C36A4A6822F4BD
:103E800080321A434A6090F82410490706D5016829
:103E9000036B4A6822F480221A434A6090F8241087
:103EA000C90606D50168836B8A6822F480521A43DA
:103EB0008A6090F82410890606D50168C36B8A6869
:103EC00022F400521A438A6090F82410490611D552
:103ED0000168036C4A6822F480121A434A60016C3C
:103EE000B1F5801F06D10168436C4A6822F4C00214
:103EF0001A434A6090F82410090606D50168826CBE
:103F0000486820F400201043486070472DE9F843CA
:103F100000250446C0F88450FEF772F880462068F9
:103F200020266FF07E470068000712D50022434626
:103F300031042046009700F07BF950B1216851E828
:103F4000000F20F0800041E80002002AF6D1E66769
:103F500021E020680068400722D5002243464FF444
:103F600080012046009700F063F9C8B1206850E84E
:103F7000001F21F4907140E80012002AF6D1206859
:103F8000083050E8001F21F0010140E80012002A2B
:103F9000F5D1C4F88060032084F87850BDE8F88338
:103FA000E667C4F8806025666566002084F878506E
:103FB000F4E7016851E8002F22F4907241E80023F1
:103FC000002BF6D10168083151E8002F22F00102E0
:103FD00041E80023002BF5D1016E012908D10268C8
:103FE00052E8001F21F0100142E80013002BF6D127
:103FF00000212022C0F88020016681667047000001
:104000002DE9F04104460368C2698168D4E904508F
:10401000DFF8F0C17C4E29431F68002510437B4A1E
:10402000014307EA0C070F431F604FF4004021686B
:10403000E7684B6823F440533B434B602768A36910
:10404000216AD7F808C019432CF430630B43BB60D6
:104050002168B1420AD1116811F0030152D001293F
:104060007CD0022971D003296ED184E0684B99423B
:104070000AD1116811F00C0167D0042965D0082914
:1040800075D00C2960D176E0624B99420AD1116853
:1040900011F0300159D010296BD0202967D0302978
:1040A00052D168E05C4B99420AD1116811F0C0010D
:1040B0004BD040295DD0802959D0C02944D15AE045
:1040C000564B99420DD1116811F440713DD0B1F5B4
:1040D000807F4ED0B1F5007F49D0B1F5407F33D11C
:1040E00049E04F4B99420FD1116811F4406109D05A
:1040F000B1F5806F3DD0B1F5006F38D0B1F5406FAC
:1041000022D138E0012120E0464B99420DD11168BF
:1041100011F4405119D0B1F5805F2AD0B1F5005F9C
:1041200025D0B1F5405F0FD125E03F4B99420BD12F
:10413000116811F4404108D0B1F5804F19D0814287
:1041400015D0B1F5404F16D01021E369374A4FF62C
:10415000EF7683422ED1092949D201E009E006E039
:10416000DFE801F00B0E114513454545160002210D
:10417000EBE70421E9E70821E7E7FEF705FE06E0A3
:10418000FEF712FE03E0104602E0FEF71DFE78B3D4
:104190006168400000EB5100B0FBF1F0A0F11001AC
:1041A000B14224D84FF6F0732168C0F342021840A0
:1041B000104320E009291AD2DFE801F005080B19A5
:1041C0000D1919191000FEF7DFFD06E0FEF7ECFDF2
:1041D00003E0104602E0FEF7F7FD48B1616800EB2E
:1041E0005100B0FBF1F0A0F11001B14201D901255D
:1041F00002E0216880B2C8600020A066E066284620
:10420000BDE8F081F369FFEF0010014090380240F3
:104210000044004000480040004C00400050004076
:104220000014014000780040007C00400024F400AD
:104230002DE9F047994617460D460446089E4FF073
:10424000000833E0701C31D0FDF7DAFEA0EB090066
:10425000B04218D8BEB120680168490726D5802D24
:1042600024D0402D22D0C169C94309070DD40825A7
:1042700005622046FFF79DFEC4F88450012084F8B3
:104280007880BDE8F0870320FBE7C069C0430005E4
:104290000CD421684FF4006008622046FFF789FEC5
:1042A0002021C4F8841084F87880ECE72068C06985
:1042B00035EA000004D00020B842C3D00020E0E777
:1042C0000120F9E7FEE703B401984100009850EAA5
:1042D000C12018BF04204A0D18BF40F0010040F271
:1042E000FF72B2EB515F08BF40F00200012808BF27
:1042F000052002B070474100080218BF04200A0ED2
:1043000018BF40F001004FF07F4232EA010108BFC0
:1043100040F00200012808BF052070470907002867
:104320004FEA116104DB00F1E02080F800147047CF
:1043300000F00F0000F1E02080F8141D704700002D
:104340009FED4B0A63E000BFD2ED003A91ED004AC9
:1043500092ED013AD1ED011A04EE230A92ED022A00
:10436000D1ED022A92ED031AD1ED030A92ED044A2F
:1043700001EE830AD1ED043A92ED053AD1ED061A29
:1043800002EE820AD1ED052A92ED062A00EE810A9C
:1043900092ED071AD1ED070A03EE840AD2ED083A2E
:1043A00091ED094A02EE830A91ED083AD2ED0A2A0C
:1043B00001EE820A91ED0A2AD2ED0B1A00EE810A73
:1043C000D2ED090A91ED0B1A03EE230AD2ED0C3A55
:1043D00091ED0D3A04EE200A91ED0C4AD1ED0E0A52
:1043E00002EE220A92ED0D2AD2ED0E2A01EE210AEA
:1043F00092ED0F1AD1ED0F1A40314032103B04EE0E
:10440000230A03EE020A00EEA20A01EE810A102B33
:104410009AD21AE0D1ED000A92ED001AD1ED011AFC
:1044200092ED012A00EE810AD1ED020A92ED021A04
:1044300001EE820AD1ED031A92ED032A10311032F7
:104440001B1F00EE810A01EE820A042BE2D206E075
:10445000F1EC010A5B1EB2EC011A00EE810A002B9E
:10446000F6D1D0ED000A30EE800A80ED000A7047E8
:10447000000000009FED4B0A63E000BFD2ED003A60
:1044800091ED004A92ED013AD1ED011A04EE230AB2
:1044900092ED022AD1ED022A92ED031AD1ED030A20
:1044A00092ED044A01EE830AD1ED043A92ED053A09
:1044B000D1ED061A02EE820AD1ED052A92ED062A06
:1044C00000EE810A92ED071AD1ED070A03EE840A85
:1044D000D2ED083A91ED094A02EE830A91ED083ACD
:1044E000D2ED0A2A01EE820A91ED0A2AD2ED0B1AC8
:1044F00000EE810AD2ED090A91ED0B1A03EE230AB0
:10450000D2ED0C3A91ED0D3A04EE200A91ED0C4AF1
:10451000D1ED0E0A02EE220A92ED0D2AD2ED0E2AFC
:1045200001EE210A92ED0F1AD1ED0F1A40314032FF
:10453000103B04EE230A03EE020A00EEA20A01EE8B
:10454000810A102B9AD21AE0D1ED000A92ED001ADE
:10455000D1ED011A92ED012A00EE810AD1ED020A95
:1045600092ED021A01EE820AD1ED031A92ED032AAE
:10457000103110321B1F00EE810A01EE820A042B5B
:10458000E2D206E0F1EC010A5B1EB2EC011A00EE89
:10459000810A002BF6D1D0ED000A30EE800A80EDC2
:1045A000000A70470000000010B510EE104A4FF0EE
:1045B00019406849002200EB44002DED028B88422F
:1045C00057D8DFED650A14F0004F60EE200A14BFE3
:1045D0009FED621A9FED621A71EE200AFDEEE00A6D
:1045E00010EE900A00EE900AF8EEE00A9FED5D1AD8
:1045F00000EEC10A9FED5C1A00EEC10ADFED5B0A16
:104600009FED5B1A00EE201ADFED5A0A40EE010A18
:104610009FED591A594B00F0030100EE201A21EECC
:10462000000A7B4403EB8103D3ED000A544B7B4427
:1046300003EB810393ED001A524B41EE000A7B44D9
:1046400003EB8101801091ED000A70EE800AEABB55
:1046500000EE100AB8EEC01ADFED4B1A9FED4B0AC0
:10466000BDEC028B01EE210ABCEEC00A20EE200A4E
:1046700010BD4FF0FF40A0431BD04FF0CE40B0EB39
:10468000440F82BF9FED420ABDEC028B10BD414832
:10469000B0EB440F28BF012293D20220FCF7C3F9EC
:1046A00014F0004F15D0BDEC028BBDE8104000F0B7
:1046B000F7B814F5000F02BF9FED370ABDEC028B6F
:1046C00010BDBDEC028BBDE8104000E007E000F03B
:1046D000DBB8BDEC028BBDE8104000F0D9B800EBB0
:1046E000D07359104FF07E5202EBC15100EE101AF8
:1046F000A0EB630002EBC05060EE200A00EE100A4F
:1047000020EE208A18EE100A88B118EE100AB0F1D7
:10471000FF4F15D018EE100AFFF7EDFD042808BF73
:1047200000F0BEF8B0EE480ABDEC028B10BD0220CE
:10473000FCF779F9BDEC028BBDE8104000F0B0B891
:104740000220FCF770F9BDEC028BBDE8104000F0D0
:104750009FB800000000501E3BAAB840000000BFF8
:104760000000003F0070313EF4FD053712BB2A3DCA
:1047700012BB2A3EFFFFFF3EFFFF7F3F866408001B
:104780008A6408005A6408000000004B00007E4E56
:104790000000803F0000A0850000000010B510EE72
:1047A000104A2DED028B4FF07F40B0EEC08AB0EB87
:1047B000440F55D318EE101A2C4A914220DD18EE02
:1047C000101AB0EB410F1BD318EE101A284ADFED78
:1047D000298A914207DD18EE101AB0EB410F28BF6D
:1047E000B0EE680A35D238EE080AFFF7DDFE70EE4B
:1047F000280A9FED211A81EE200A38EEC00A28E02F
:1048000018EE101AB1F1665F0FDA18EE101AB0EB5D
:10481000410F0AD318EE100AFFF76DFD042808BFF8
:1048200000F03EF8B0EE480A13E028EE080ADFED8B
:10483000130ADFED131A9FED131A40EE210A60EE02
:10484000800A30EE010A80EE801AB0EE480A08EEC7
:10485000010A002CB8BFB1EE400ABDEC028B10BDBE
:10486000BDEC028BBDE8104000F00EB8549F0C3F29
:10487000B32C10410000803F00000040C6E252BF50
:10488000B2117BBB1A2A1E4030EE000A70470000AE
:104890009FED020A20EE000A704700000000007041
:1048A0009FED020A20EE000A704700000000001091
:1048B00010B54169044688472069A04200D1002014
:1048C00010BD00002DE9F04F00260F4699B00546B7
:1048D000B04634464DE000BFA868C4EBC402894628
:1048E000D0E9013C03EB82000B902D480FAA029205
:1048F0000CEBC40A51F8082F006A49680C91110AA0
:1049000061F31F201C21834604A8FCF70BF8D9F89B
:104910001800006800F0A6FD0490D9F8180080681F
:1049200005905FEA0A0009D0C0F80080D9F80010AD
:10493000416029B1498819B1012102E0404603E0F4
:104940000021016001B900200690D9F818001C224E
:1049500004A94068CDE9080B0C980A900298FBF76F
:104960008DFF0B981C220FA9FBF788FF761CB6B2AF
:10497000641C0DB1288800E00020A04205D96868B9
:1049800018B150F824100029A6D11EB1A8684068BB
:10499000386001E0C7F8008019B03046BDE8F08FFC
:1049A00008A908082DE9F04F8946046809A9DDE93E
:1049B0000C8AB9F9005091E880180BFB0CF169439F
:1049C000A4EB8101994201D23E4600E0002601EBB2
:1049D0008601994203EB870608D9454504D105E0D5
:1049E000B1EC010AA4EC010A8E42F9D80AFB0CF1E1
:1049F0001388A8EB050C05EB0A0801FB0BF103EB90
:104A00000C0515800FFA88F304EB810102E000BF6A
:104A1000A1EB87018E42FBD90160A9F80030BDE807
:104A2000F08F000010B59FED0C1AD3ED000A01EBDA
:104A3000820400EB8200001F241F8C420BD394EDF4
:104A4000000AB4EEE00AF1EE10FA01D8B0EE410A25
:104A500080ED000AEFE710BD00000000C0F3434204
:104A60004FF00001042A01D0082A06D1C0F3C61273
:104A7000C0F341500121C240914008467047303890
:104A80000A2801D201207047002070472DE9F04725
:104A90008246089D25F00100EC0803EB80099FED9C
:104AA000450A55E001C993ED001A00F00F07C0F365
:104AB000031602EB870702EB8606D3ED014AD6ED1B
:104AC000000AD7ED001AC0F3072C00EE810A4FEA66
:104AD0001C1C93ED025A02EB8C07C0F30328D7EDA0
:104AE000000A01EEA40A02EB880693ED033AD6ED24
:104AF000002AC0F3074C93ED044A00EE850A4FEA02
:104B00001C1CC0F3034702EB8C0C02EB87079CEDE7
:104B1000002A02EE830A97ED001AD3ED053A060F3C
:104B2000D3ED064A02EB860602EE040AD6ED001A21
:104B3000C0F3036093ED075A02EB8000203301EECF
:104B4000230AD0ED000A641E01EEA40A00EE850AD5
:104B5000002CA7D116E000BF11F8010B93ED002A3D
:104B600093ED011A040900F00F0002EB840402EB3C
:104B70008000D4ED001AD0ED000A083301EE820A5D
:104B800000EE810A4B45E7D3E8070AD011F8010B84
:104B900093ED001A000902EB8000D0ED000A00EE50
:104BA000810ADAED000A084630EE800A8AED000A32
:104BB000BDE8F08700000000F0B504469FED3E0A16
:104BC000059D03EB8500103827E00E7893ED001A61
:104BD0004F7802EB8606D3ED012AD6ED000A02EBF0
:104BE000870611F802CF00EE810A96ED001A02EB5B
:104BF0008C0791F801C093ED022AD7ED000A02EB71
:104C00008C0601EE220AD3ED031A891C103300EE44
:104C1000820AD6ED000A00EEA10A8342D5D915F02A
:104C2000030041D0012804D002280DD003283BD135
:104C30001EE011F8010B93ED001A02EB8000D0ED9D
:104C4000000A00EE810A2FE00878D3ED001A4D78B3
:104C5000891C02EB8000D3ED010A90ED001A02EBF3
:104C6000850001EE210A90ED001A01EE200A1BE0FA
:104C7000087893ED002A4D7802EB80008E7893ED52
:104C8000011AD0ED001A02EB8500D3ED020A01EE05
:104C9000820AD0ED001A02EB8600C91C01EE810ADF
:104CA00090ED001A01EE200AD4ED000A084630EE1D
:104CB000800A84ED000AF0BD000000002DE9F74FE6
:104CC0000C46C9491746A1F180002DED028BE0B0DA
:104CD000E58C1EAE826FB4F82480236807EB850A4A
:104CE000D4ED0F8A17930AEB850963680D932AABFD
:104CF000A06A1190A068049083E8A40005FB08F264
:104D0000179B2D9703EB82031A935BAB886883E8AC
:104D1000210405FB05F00D9BCDF878A103EB800382
:104D20001C9303EB8003039303EB800015908B69C6
:104D300009EB850086E82902CDF88890049800EBFD
:104D4000850010901A9B03EB82000F9011988B6ADC
:104D500000EB85000E90109800EB850005900F98F1
:104D600000EB820016900E9800EB850002901E98D2
:104D7000089009900598CDE9063500EB85004C9028
:104D8000D1E91023886BCDE94305CDE94523206A9D
:104D90004590206A4690886CD1E91421CDE94705F9
:104DA000CDE94921206B4990206B4A902AA829908F
:104DB0005BA834901FA83B9006A8429043A853904C
:104DC00047A89FED8A8A00265A9083E007EB860069
:104DD0004346834680ED008A629A1799FFF7B0FA3E
:104DE000E26958460D992B46FFF7AAFA0498434604
:104DF00000EB860090ED000A119800EB860090ED24
:104E0000001A206B00EB8600D0ED000A0AEB86004A
:104E100001EE200ADBED000A30EE200A8BED000ADD
:104E200080ED008A629A83461A99FFF789FAE2694F
:104E300058461C992B46FFF783FA1098434600EB1F
:104E4000860090ED000A029800EB8600D0ED000A83
:104E5000206B00EB860090ED001A09EB860000EE57
:104E6000810ADBED000A30EE200A8BED000A80EDAE
:104E7000008A629A83460F99FFF762FAE269584600
:104E800003992B46FFF75CFA179800EB8800179000
:104E90000D9800EB85000D9005989BED000A00EB46
:104EA00086021A9800EB88001A900F9800EB880091
:104EB0000F901C98D2ED000A00EB85001C9003981F
:104EC00030EE200A00EB850080FE680A0390761C15
:104ED0008BED000AAE42FFF479AFD4E9056323A954
:104EE0002A460846B047D4E905632EA92A46084653
:104EF000B047D4E9036335A92A460846B0470026DF
:104F000048E000BF0AEB86004346D0ED001A07EBED
:104F10008600D0ED000A09EB860090ED001A206BA8
:104F200000EB860090ED000A20EE210A00EE810AD7
:104F300080ED000A1E9800EB8600834680ED008A13
:104F4000629A1699FFF7FCF9E269584615992B46C3
:104F5000FFF7F6F94C98226B00EB86010E98DBED1B
:104F6000001A00EB8603169891ED000A00EB88000A
:104F70001690159800EB8500159002EB860093EDD6
:104F8000001AD0ED000A761C01EE200A30EE210A4C
:104F90008BED000AAE42B5D3D4E905633CA92A469D
:104FA0000846B047D4E90D6354A92A464DA8B04736
:104FB00000200EE01E99226A01EB800302EB8001C3
:104FC000D3ED000A91ED000A401C20EE200A81ED8D
:104FD000000AA842EED3D4E90710C4E9070160B083
:104FE000BDEC028BBDE8FE8FF0A9080800000000B0
:104FF00070B5054648880C466988884202D9A2B136
:10500000002070BD8AB100260BE06168C6EBC600C7
:105010006A6801EB800102EB80001C22FBF72EFC8A
:10502000761C6088B042F0D801E0606868606088F3
:10503000688020882880012070BD000030B500B352
:10504000F9B1F2B15268E2B10F4C1368A34203D038
:105050000129026013D014E00023121D07E000BFF5
:1050600052F82350A54204D040F823505B1C8B42D9
:10507000F6D38B4205D152F82300A04201D1012082
:1050800030BD002030BD0000DECAFAA170B50600B8
:105090000D4614461AD0CCB1104600F07BFA00B190
:1050A0006088A84212D10421002309E0C3EBC302A7
:1050B000606801EB8202805820B146F823005B1C37
:1050C000AB42F3D3AB4201D1012070BD002070BDD3
:1050D0000349884201D10120704700207047000039
:1050E000DECAFAA12DE9FE4F04009246894603D09C
:1050F000208E20B1656B03E00020BDE8FE8F002507
:10510000217C00206083C9432083880702D030229D
:105110001121DCE0B9F1000F62D0002D60D02888A9
:10512000C8B3D9F818000026D0F8008056E0A86867
:10513000006800EB0610019052D060B3C6EBC600C9
:105140000290012109EB8000009000F02DFA024648
:10515000DBF8180041688A421AD8009ADBF80C3054
:105160009269DF68D2F80CC0674511D19F68D2F808
:1051700008C067450CD15B685268934208D100684B
:1051800000F060F90746584602F0C0FA874203D2A1
:10519000182212219BE023E0DBF81800006800F0E1
:1051A00061F90299C00159F82110B0EBC11F01D07B
:1051B0001922EEE70098406890B100988069006875
:1051C00080B14045414600D208465A468046DDE956
:1051D000001000F08FF806F101062DB1288804E0D8
:1051E0001722D6E72122D4E70020B04206D968680A
:1051F00020B150F826B0BBF1000F98D1BAF1000FE2
:1052000073D0208E012806D9656B0C3503D0288811
:1052100008B1002657E0182258E0A868006800EBA3
:10522000061B39D0BBF1000F36D0C6EBC60001908B
:1052300001210AEB8000009000F0B6F9D9F818308F
:1052400059688842E7D8009AD9F80C009269C76873
:10525000D2F80CC06745DED18768D2F808C0674530
:10526000D9D1406852689042D5D1186800F0EAF868
:105270000746484602F04AFA8742CCD3D9F81800CC
:10528000006800F0EFF80199C0015AF82110B0EB66
:10529000C11F03D0192219E0172217E000984068B7
:1052A0000028F9D000988069006870B140454146F7
:1052B00000D20846009980464A46584600F01AF83F
:1052C00006F101063DB1288806E02122132120467F
:1052D00000F0FEFB10E70020B04206D9686820B15C
:1052E00050F82690B9F1000F97D14FF00100A4F8C3
:1052F000188002E770B50E4604461546104602F0C7
:1053000005FAA0600146B06900684843E060716832
:105310006160726810442060A8690268920007D436
:10532000D0E90223D21A11448160A9696068C8607B
:1053300070BD2DE9F0410025064620E0B268816984
:1053400013680A6803EB0514920005D58968D4E94F
:10535000010202F0C9FF08E0D1E902236768D21A0E
:105360003A448A6080696168C16094E8070011442A
:105370006160814201D3E168411A61606D1C0EB128
:10538000308800E00020A84206D97068002803D0C9
:1053900050F825000028D1D1BDE8F0812DE9F04179
:1053A000002506462BE0B26888691268036802EBA4
:1053B00005149A000FD58068D4E9011202F094FF19
:1053C000D4E90101084460602168884201D3E068A3
:1053D000081A606012E0D4E90020A36818446060F5
:1053E000904201D3E068101A60608A69D2E90237FE
:1053F000DB1B1844906089696068C8606D1C0EB141
:10540000308800E00020A84206D97068002803D048
:1054100050F825100029C6D1BDE8F08170B579B1EA
:10542000C0F3C615C0F341526943C91D21F00704FA
:10543000D440FFF713FB00FB0540C01DC00870BD42
:10544000002070BD59B1C0F3C613C0F34152594397
:10545000C91D21F00700D040C01DC00870470020C2
:1054600070470000C0F3434102294FF0400130B5BE
:1054700019D03B4A20F07E434D019C1A934263D0E1
:1054800028DC384A9342A3EB02045DD018DC402BA1
:105490005BD0403BB3F5802350D0802B3DD0B3F59B
:1054A000806F52D134E0C0F3C051C0F3C612C905B9
:1054B00000F07F0341EAC211194341F4802144E026
:1054C000A4F54074F93C26D00F2C3AD0AC423CD124
:1054D00025493AE0254BE21A9C4229D00CDC244AAB
:1054E000A21813D0B2F5F83F1FD0224BD2181AD011
:1054F000B2F5607F29D112E0A2F54072F93A10D0DE
:105500000F2A18D0AA4220D11B491EE01B491CE0DB
:105510001449C91F19E01A4917E01A4915E01A4938
:1055200013E01A4911E01A490FE0194980390CE0DB
:105530001549C91D09E015490F3106E011498039A7
:1055400003E00F490F3100E0114600F0804200F007
:1055500000530A43134300F00060184330BD0000BD
:1055600040040600470404004010040007007E00C9
:1055700000F483FF800FFEFF401084004010820083
:1055800040080400C0000400400484004008840077
:10559000C000840028B1416819B1408808B10120D9
:1055A0007047002070470000020010B52AD0106834
:1055B000154BB3EBC01F03D0144BB3EBC01F01D18D
:1055C000012000E0002008429069406802D01F30AE
:1055D00020F01F005369D9B2012900D000211B0A15
:1055E00007E0012907D0946954F821406043491C21
:1055F0001AB11C4602E00124F8E700248C42F0DCDA
:10560000002800DC002010BD0060004200600002A5
:1056100009A108B50968009148B101789DF80020FA
:10562000914204D104226946FBF756F808B10020E4
:1056300008BD012008BD0000038404842DE9F04169
:10564000066C0025816B0446C163CEB1D9B101203F
:10565000626CB0470CE00220626CB047E06BFFF771
:1056600027F90746626C0320E16BB0476D1CE763C6
:10567000E16B0029EFD106E0FFF71AF96D1CE0633A
:10568000E06B0028F8D12846BDE8F08103460020F1
:10569000996B002908D00A69401CCB608A4203D06C
:1056A000002A01D01146F6E770472DE9F041846BDE
:1056B000002594B1012600272079C00707D0216A70
:1056C000204611B18847304600E03846054420693D
:1056D000A04202D008B10446EEE72846BDE8F081BA
:1056E0001CB500230522CDE90023024A012300F066
:1056F000C3F81CBDEC09002030B50C4B0C46054628
:105700008BB00DF11C0C0FCB8CE80F0007491C224D
:1057100068461031FBF7B2F807A801941C226946CD
:1057200006902846FBF7AAF80BB030BD6C84000841
:1057300030B50C4B0C4605468BB00DF11C0C0FCB55
:105740008CE80F0007491C2268461031FBF796F8D9
:1057500007A801941C22694606902846FBF78EF89C
:105760000BB030BD9884000800487047301000200E
:105770002DE9F0410D46064600F0CCF8041E0DD090
:10578000294602F081FB07462946204602F008FB25
:1057900000EA0704304600F049F92040BDE8F081F6
:1057A00010B90248024A026000F044B8EC09002037
:1057B0000001C0A110B90248024A026000F08EB98F
:1057C000EC0900200001C0A100F058B9016810B137
:1057D000024A8A4300D00020704700000001C0A1A7
:1057E00030B44AB140B139B1074C1368A34206D175
:1057F00030BC0C32FFF74ABC30BC0020704730BCD4
:105800001C32FFF71BBC0000DECAFAA130B44AB15B
:1058100040B139B1064C1368A34206D130BC121D09
:10582000FFF734BC30BC0020704730BCFFF706BC2B
:10583000DECAFAA1F8B50E46FFF7C8FF04000AD089
:1058400000270097208E00B1606B6946FFF73AF899
:10585000050006D00BE01022114600F039F90020B7
:10586000F8BD18222046112100F032F9009706B148
:1058700035800098F8BD00002DE9F04F89B04FF059
:10588000000A05005746214E9146DDE9121063F3E8
:10589000070754469B46019161F30F27039060F37D
:1058A000174718D0C5F8009000F059F9B8B1002298
:1058B000B046B68AC7F30721F8B200F040F90022DB
:1058C0000746C6F30721F0B200F039F9874208D045
:1058D000D8F804400EE0F06909B0BDE8F08F3468F4
:1058E00008E00BA0006800906846FFF791FE18B929
:1058F000D8F80840C5F800A05846039A019900F06E
:105900001EF9C9F808002046E6E7000008A90808C3
:10591000038404842DE9F04F91B00C46FFF756FF45
:10592000050013D0B4B120683CA1FFF7D1FB0600FD
:105930004FF0000B11D020680190D4E90301CDE9AC
:105940000401D4E90101CDE9020144E0002011B0D5
:10595000BDE8F08F112210215DE0D4F804A00121F0
:105960002046FFF721FED4F820908046012104F163
:105970001C001090FFF718FE2A491422074607A8BA
:10598000FAF77CFFB8F1000F4FF0010002D0ADF83C
:10599000220002E00024ADF822B009941FB1109952
:1059A000ADF82A0002E00021ADF82AB0B9F1000FED
:1059B0000B9102D10FB1132206E0BAF1000F05D10D
:1059C000B8F1000F02D01222102123E0142207A9FF
:1059D00001A8FAF753FF14492868884212D186F0CB
:1059E000010202A9144605F12000FFF701FB68B18E
:1059F00004A9224605F12800FFF7FAFA40B128462B
:105A0000FFF744FE032028612846A0E7122200E0A9
:105A100013221621284600F05BF897E7696E697437
:105A2000000000005CA908080001C0A170B5FFF7E4
:105A3000CDFE002807D0017C890705D41022112152
:105A400000F046F8002070BD0B4A0168914211D168
:105A50000546FFF72AFE286C60B1AC6B54B1D5E95E
:105A600010320020214698472069A04202D008B198
:105A70000446F4E7012070BD0001C0A170B51346D3
:105A80000D46FFF7A3FE04461A462946FFF72AFBF8
:105A900000281CD0208E08B1666B00E0002601288B
:105AA00002D9656B0C350DE000250BE03046FFF7A1
:105AB00040FC2046FFF7C2FD2846FFF76FFC608BD5
:105AC000401C6083608B218B8842EFD380B270BD15
:105AD000002802D00C3000F05FB87047F8B50E46D1
